{
  "contractName": "CarbonEmission",
  "abi": [
    {
      "inputs": [
        {
          "internalType": "address",
          "name": "",
          "type": "address"
        }
      ],
      "name": "carbonCredits",
      "outputs": [
        {
          "internalType": "uint256",
          "name": "",
          "type": "uint256"
        }
      ],
      "stateMutability": "view",
      "type": "function"
    },
    {
      "inputs": [
        {
          "internalType": "address",
          "name": "",
          "type": "address"
        }
      ],
      "name": "carbonReports",
      "outputs": [
        {
          "internalType": "string",
          "name": "reportText",
          "type": "string"
        }
      ],
      "stateMutability": "view",
      "type": "function"
    },
    {
      "inputs": [
        {
          "internalType": "address",
          "name": "user",
          "type": "address"
        },
        {
          "internalType": "uint256",
          "name": "credits",
          "type": "uint256"
        }
      ],
      "name": "addCarbonCredits",
      "outputs": [],
      "stateMutability": "nonpayable",
      "type": "function"
    },
    {
      "inputs": [
        {
          "internalType": "string",
          "name": "report",
          "type": "string"
        }
      ],
      "name": "submitCarbonReport",
      "outputs": [],
      "stateMutability": "nonpayable",
      "type": "function"
    }
  ],
  "bytecode": "0x608060405234801561001057600080fd5b50610973806100206000396000f3fe608060405234801561001057600080fd5b5060043610610069576000357c010000000000000000000000000000000000000000000000000000000090048063764a56df1461006e5780637aa2bdd41461009e578063efae5866146100ce578063f482bdc9146100ea575b600080fd5b610088600480360381019061008391906102f9565b610106565b60405161009591906103b6565b60405180910390f35b6100b860048036038101906100b391906102f9565b6101ac565b6040516100c591906103f1565b60405180910390f35b6100e860048036038101906100e39190610438565b6101c4565b005b61010460048036038101906100ff91906105ad565b61021d565b005b600160205280600052604060002060009150905080600001805461012990610625565b80601f016020809104026020016040519081016040528092919081815260200182805461015590610625565b80156101a25780601f10610177576101008083540402835291602001916101a2565b820191906000526020600020905b81548152906001019060200180831161018557829003601f168201915b5050505050905081565b60006020528060005260406000206000915090505481565b806000808473ffffffffffffffffffffffffffffffffffffffff1673ffffffffffffffffffffffffffffffffffffffff16815260200190815260200160002060008282546102129190610685565b925050819055505050565b604051806020016040528082815250600160003373ffffffffffffffffffffffffffffffffffffffff1673ffffffffffffffffffffffffffffffffffffffff1681526020019081526020016000206000820151816000019081610280919061086b565b5090505050565b6000604051905090565b600080fd5b600080fd5b600073ffffffffffffffffffffffffffffffffffffffff82169050919050565b60006102c68261029b565b9050919050565b6102d6816102bb565b81146102e157600080fd5b50565b6000813590506102f3816102cd565b92915050565b60006020828403121561030f5761030e610291565b5b600061031d848285016102e4565b91505092915050565b600081519050919050565b600082825260208201905092915050565b60005b83811015610360578082015181840152602081019050610345565b60008484015250505050565b6000601f19601f8301169050919050565b600061038882610326565b6103928185610331565b93506103a2818560208601610342565b6103ab8161036c565b840191505092915050565b600060208201905081810360008301526103d0818461037d565b905092915050565b6000819050919050565b6103eb816103d8565b82525050565b600060208201905061040660008301846103e2565b92915050565b610415816103d8565b811461042057600080fd5b50565b6000813590506104328161040c565b92915050565b6000806040838503121561044f5761044e610291565b5b600061045d858286016102e4565b925050602061046e85828601610423565b9150509250929050565b600080fd5b600080fd5b7f4e487b7100000000000000000000000000000000000000000000000000000000600052604160045260246000fd5b6104ba8261036c565b810181811067ffffffffffffffff821117156104d9576104d8610482565b5b80604052505050565b60006104ec610287565b90506104f882826104b1565b919050565b600067ffffffffffffffff82111561051857610517610482565b5b6105218261036c565b9050602081019050919050565b82818337600083830152505050565b600061055061054b846104fd565b6104e2565b90508281526020810184848401111561056c5761056b61047d565b5b61057784828561052e565b509392505050565b600082601f83011261059457610593610478565b5b81356105a484826020860161053d565b91505092915050565b6000602082840312156105c3576105c2610291565b5b600082013567ffffffffffffffff8111156105e1576105e0610296565b5b6105ed8482850161057f565b91505092915050565b7f4e487b7100000000000000000000000000000000000000000000000000000000600052602260045260246000fd5b6000600282049050600182168061063d57607f821691505b6020821081036106505761064f6105f6565b5b50919050565b7f4e487b7100000000000000000000000000000000000000000000000000000000600052601160045260246000fd5b6000610690826103d8565b915061069b836103d8565b92508282019050808211156106b3576106b2610656565b5b92915050565b60008190508160005260206000209050919050565b60006020601f8301049050919050565b60008160020a8302905092915050565b60006008830261071e7fffffffffffffffffffffffffffffffffffffffffffffffffffffffffffffffff826106de565b61072886836106de565b95508019841693508086168417925050509392505050565b6000819050919050565b600061076561076061075b846103d8565b610740565b6103d8565b9050919050565b6000819050919050565b61077f8361074a565b61079361078b8261076c565b8484546106ee565b825550505050565b600090565b6107a861079b565b6107b3818484610776565b505050565b5b818110156107d7576107cc6000826107a0565b6001810190506107b9565b5050565b601f82111561081c576107ed816106b9565b6107f6846106ce565b81016020851015610805578190505b610819610811856106ce565b8301826107b8565b50505b505050565b60008160020a8304905092915050565b600061084260001984600802610821565b1980831691505092915050565b600061085b8383610831565b9150826002028217905092915050565b61087482610326565b67ffffffffffffffff81111561088d5761088c610482565b5b6108978254610625565b6108a28282856107db565b600060209050601f8311600181146108d557600084156108c3578287015190505b6108cd858261084f565b865550610935565b601f1984166108e3866106b9565b60005b8281101561090b578489015182556001820191506020850194506020810190506108e6565b868310156109285784890151610924601f891682610831565b8355505b6001600288020188555050505b50505050505056fea26469706673582212200a64018df02270d0ea92d74575f17be6b703c6d15ccb27201efe346d4bf77cda64736f6c63430008150033",
  "immutableReferences": {},
  "source": "pragma solidity ^0.8.0;\r\n\r\ncontract CarbonEmission {\r\n    struct CarbonReport {\r\n        string reportText;\r\n    }\r\n\r\n    mapping(address => uint256) public carbonCredits;\r\n    mapping(address => CarbonReport) public carbonReports;\r\n\r\n    function addCarbonCredits(address user, uint256 credits) public {\r\n        carbonCredits[user] += credits;\r\n    }\r\n\r\n    function submitCarbonReport(string memory report) public {\r\n        carbonReports[msg.sender] = CarbonReport(report);\r\n    }\r\n}\r\n",
  "sourcePath": "G:\\CNTS\\carbon-neutral-trading-system\\truffle\\contracts\\CarbonEmission.sol",
  "compiler": {
    "name": "solc",
    "version": "0.8.21+commit.d9974bed.Emscripten.clang"
  },
  "schemaVersion": "3.4.16",
  "updatedAt": "2024-04-12T07:04:46.453Z",
  "devdoc": {
    "kind": "dev",
    "methods": {},
    "version": 1
  },
  "userdoc": {
    "kind": "user",
    "methods": {},
    "version": 1
  }
}