{
  "contractName": "CarbonCredits",
  "abi": [
    {
      "inputs": [
        {
          "internalType": "contract IERC20",
          "name": "_carbonCoin",
          "type": "address"
        },
        {
          "internalType": "address",
          "name": "_admin",
          "type": "address"
        },
        {
          "internalType": "address",
          "name": "_auditor",
          "type": "address"
        },
        {
          "internalType": "address",
          "name": "_thirdParty",
          "type": "address"
        }
      ],
      "stateMutability": "nonpayable",
      "type": "constructor"
    },
    {
      "anonymous": false,
      "inputs": [
        {
          "indexed": false,
          "internalType": "address",
          "name": "_target",
          "type": "address"
        },
        {
          "indexed": false,
          "internalType": "int256",
          "name": "_amount",
          "type": "int256"
        }
      ],
      "name": "CarbonAllowanceReset",
      "type": "event"
    },
    {
      "anonymous": false,
      "inputs": [
        {
          "indexed": false,
          "internalType": "address",
          "name": "account",
          "type": "address"
        },
        {
          "components": [
            {
              "internalType": "string",
              "name": "reportText",
              "type": "string"
            }
          ],
          "indexed": false,
          "internalType": "struct CarbonCredits.CarbonReport",
          "name": "carbonReport",
          "type": "tuple"
        }
      ],
      "name": "CarbonReportSubmitted",
      "type": "event"
    },
    {
      "anonymous": false,
      "inputs": [
        {
          "indexed": false,
          "internalType": "address",
          "name": "_from",
          "type": "address"
        },
        {
          "indexed": false,
          "internalType": "address",
          "name": "_to",
          "type": "address"
        },
        {
          "indexed": false,
          "internalType": "int256",
          "name": "_amount",
          "type": "int256"
        },
        {
          "indexed": false,
          "internalType": "uint256",
          "name": "_price",
          "type": "uint256"
        }
      ],
      "name": "CarbonTransaction",
      "type": "event"
    },
    {
      "anonymous": false,
      "inputs": [
        {
          "indexed": false,
          "internalType": "address",
          "name": "_account",
          "type": "address"
        },
        {
          "indexed": false,
          "internalType": "int256",
          "name": "_amount",
          "type": "int256"
        }
      ],
      "name": "ExceedRecord",
      "type": "event"
    },
    {
      "inputs": [
        {
          "internalType": "address",
          "name": "",
          "type": "address"
        }
      ],
      "name": "carbonAllowance",
      "outputs": [
        {
          "internalType": "int256",
          "name": "",
          "type": "int256"
        }
      ],
      "stateMutability": "view",
      "type": "function",
      "constant": true
    },
    {
      "inputs": [],
      "name": "carbonCoin",
      "outputs": [
        {
          "internalType": "contract IERC20",
          "name": "",
          "type": "address"
        }
      ],
      "stateMutability": "view",
      "type": "function",
      "constant": true
    },
    {
      "inputs": [
        {
          "internalType": "address",
          "name": "",
          "type": "address"
        }
      ],
      "name": "carbonReports",
      "outputs": [
        {
          "internalType": "string",
          "name": "reportText",
          "type": "string"
        }
      ],
      "stateMutability": "view",
      "type": "function",
      "constant": true
    },
    {
      "inputs": [
        {
          "internalType": "address",
          "name": "_target",
          "type": "address"
        },
        {
          "internalType": "int256",
          "name": "_amount",
          "type": "int256"
        }
      ],
      "name": "resetAllowance",
      "outputs": [],
      "stateMutability": "nonpayable",
      "type": "function"
    },
    {
      "inputs": [
        {
          "internalType": "address",
          "name": "_to",
          "type": "address"
        },
        {
          "internalType": "int256",
          "name": "_amount",
          "type": "int256"
        },
        {
          "internalType": "uint256",
          "name": "_price",
          "type": "uint256"
        }
      ],
      "name": "carbonTransaction",
      "outputs": [],
      "stateMutability": "nonpayable",
      "type": "function"
    },
    {
      "inputs": [
        {
          "internalType": "address",
          "name": "_target",
          "type": "address"
        },
        {
          "internalType": "int256",
          "name": "_amount",
          "type": "int256"
        },
        {
          "internalType": "string",
          "name": "_report",
          "type": "string"
        }
      ],
      "name": "submitCarbonReport",
      "outputs": [],
      "stateMutability": "nonpayable",
      "type": "function"
    },
    {
      "inputs": [
        {
          "internalType": "address",
          "name": "account",
          "type": "address"
        }
      ],
      "name": "allowanceOf",
      "outputs": [
        {
          "internalType": "int256",
          "name": "",
          "type": "int256"
        }
      ],
      "stateMutability": "view",
      "type": "function",
      "constant": true
    },
    {
      "inputs": [
        {
          "internalType": "address",
          "name": "account",
          "type": "address"
        }
      ],
      "name": "reportOf",
      "outputs": [
        {
          "internalType": "string",
          "name": "",
          "type": "string"
        }
      ],
      "stateMutability": "view",
      "type": "function",
      "constant": true
    }
  ],
  "bytecode": "0x60806040523480156200001157600080fd5b506040516200187b3803806200187b8339818101604052810190620000379190620001f3565b836000806101000a81548173ffffffffffffffffffffffffffffffffffffffff021916908373ffffffffffffffffffffffffffffffffffffffff16021790555082600160006101000a81548173ffffffffffffffffffffffffffffffffffffffff021916908373ffffffffffffffffffffffffffffffffffffffff16021790555081600260006101000a81548173ffffffffffffffffffffffffffffffffffffffff021916908373ffffffffffffffffffffffffffffffffffffffff16021790555080600360006101000a81548173ffffffffffffffffffffffffffffffffffffffff021916908373ffffffffffffffffffffffffffffffffffffffff1602179055505050505062000265565b600080fd5b600073ffffffffffffffffffffffffffffffffffffffff82169050919050565b6000620001768262000149565b9050919050565b60006200018a8262000169565b9050919050565b6200019c816200017d565b8114620001a857600080fd5b50565b600081519050620001bc8162000191565b92915050565b620001cd8162000169565b8114620001d957600080fd5b50565b600081519050620001ed81620001c2565b92915050565b6000806000806080858703121562000210576200020f62000144565b5b60006200022087828801620001ab565b94505060206200023387828801620001dc565b93505060406200024687828801620001dc565b92505060606200025987828801620001dc565b91505092959194509250565b61160680620002756000396000f3fe608060405234801561001057600080fd5b50600436106100a5576000357c01000000000000000000000000000000000000000000000000000000009004806386d947171161007857806386d9471714610142578063ad2e12691461015e578063bfd2385e1461017c578063c3c7716a146101ac576100a5565b8063116776c4146100aa578063454e8dab146100da578063764a56df146100f65780637e2aceb514610126575b600080fd5b6100c460048036038101906100bf9190610b19565b6101dc565b6040516100d19190610bd6565b60405180910390f35b6100f460048036038101906100ef9190610c64565b6102b0565b005b610110600480360381019061010b9190610b19565b610645565b60405161011d9190610bd6565b60405180910390f35b610140600480360381019061013b9190610cb7565b6106eb565b005b61015c60048036038101906101579190610e2c565b6107c6565b005b610166610a22565b6040516101739190610efa565b60405180910390f35b61019660048036038101906101919190610b19565b610a46565b6040516101a39190610f24565b60405180910390f35b6101c660048036038101906101c19190610b19565b610a8f565b6040516101d39190610f24565b60405180910390f35b6060600560008373ffffffffffffffffffffffffffffffffffffffff1673ffffffffffffffffffffffffffffffffffffffff168152602001908152602001600020600001805461022b90610f6e565b80601f016020809104026020016040519081016040528092919081815260200182805461025790610f6e565b80156102a45780601f10610279576101008083540402835291602001916102a4565b820191906000526020600020905b81548152906001019060200180831161028757829003601f168201915b50505050509050919050565b81600460008573ffffffffffffffffffffffffffffffffffffffff1673ffffffffffffffffffffffffffffffffffffffff168152602001908152602001600020541215610332576040517f08c379a000000000000000000000000000000000000000000000000000000000815260040161032990610feb565b60405180910390fd5b8060008054906101000a900473ffffffffffffffffffffffffffffffffffffffff1673ffffffffffffffffffffffffffffffffffffffff166370a08231336040518263ffffffff167c01000000000000000000000000000000000000000000000000000000000281526004016103a8919061101a565b602060405180830381865afa1580156103c5573d6000803e3d6000fd5b505050506040513d601f19601f820116820180604052508101906103e9919061104a565b101561042a576040517f08c379a0000000000000000000000000000000000000000000000000000000008152600401610421906110c3565b60405180910390fd5b81600460003373ffffffffffffffffffffffffffffffffffffffff1673ffffffffffffffffffffffffffffffffffffffff168152602001908152602001600020546104759190611112565b600460003373ffffffffffffffffffffffffffffffffffffffff1673ffffffffffffffffffffffffffffffffffffffff1681526020019081526020016000208190555081600460008573ffffffffffffffffffffffffffffffffffffffff1673ffffffffffffffffffffffffffffffffffffffff168152602001908152602001600020546105039190611156565b600460008573ffffffffffffffffffffffffffffffffffffffff1673ffffffffffffffffffffffffffffffffffffffff1681526020019081526020016000208190555060008054906101000a900473ffffffffffffffffffffffffffffffffffffffff1673ffffffffffffffffffffffffffffffffffffffff166323b872dd3385846040518463ffffffff167c01000000000000000000000000000000000000000000000000000000000281526004016105bf939291906111a8565b6020604051808303816000875af11580156105de573d6000803e3d6000fd5b505050506040513d601f19601f820116820180604052508101906106029190611217565b507f7f4fe2b0f3b6adf705ed0b414801fec9b7c4293eb04de398c11014771908cf76338484846040516106389493929190611244565b60405180910390a1505050565b600560205280600052604060002060009150905080600001805461066890610f6e565b80601f016020809104026020016040519081016040528092919081815260200182805461069490610f6e565b80156106e15780601f106106b6576101008083540402835291602001916106e1565b820191906000526020600020905b8154815290600101906020018083116106c457829003601f168201915b5050505050905081565b600160009054906101000a900473ffffffffffffffffffffffffffffffffffffffff1673ffffffffffffffffffffffffffffffffffffffff163373ffffffffffffffffffffffffffffffffffffffff161461074557600080fd5b80600460008473ffffffffffffffffffffffffffffffffffffffff1673ffffffffffffffffffffffffffffffffffffffff168152602001908152602001600020819055507f7d431b1c3449bb3bcb02208f6ee26dd7b936dc8de5dbee05c44c9cdda261165582826040516107ba929190611289565b60405180910390a15050565b600260009054906101000a900473ffffffffffffffffffffffffffffffffffffffff1673ffffffffffffffffffffffffffffffffffffffff163373ffffffffffffffffffffffffffffffffffffffff161461082057600080fd5b604051806020016040528082815250600560008573ffffffffffffffffffffffffffffffffffffffff1673ffffffffffffffffffffffffffffffffffffffff1681526020019081526020016000206000820151816000019081610883919061145a565b5090505081600460008573ffffffffffffffffffffffffffffffffffffffff1673ffffffffffffffffffffffffffffffffffffffff168152602001908152602001600020546108d29190611156565b600460008573ffffffffffffffffffffffffffffffffffffffff1673ffffffffffffffffffffffffffffffffffffffff168152602001908152602001600020819055507ffb484233b8b1462403137f3ee1d35494663faaefa9b80f36ba86b0a77c27ec4e836040518060200160405280848152506040516109549291906115a0565b60405180910390a16000600460008573ffffffffffffffffffffffffffffffffffffffff1673ffffffffffffffffffffffffffffffffffffffff168152602001908152602001600020541215610a1d577ff5ff9da4db4b710588c41ac76be3c65139c3c343e06609fe13caab2ec863c85283600460008673ffffffffffffffffffffffffffffffffffffffff1673ffffffffffffffffffffffffffffffffffffffff16815260200190815260200160002054604051610a14929190611289565b60405180910390a15b505050565b60008054906101000a900473ffffffffffffffffffffffffffffffffffffffff1681565b6000600460008373ffffffffffffffffffffffffffffffffffffffff1673ffffffffffffffffffffffffffffffffffffffff168152602001908152602001600020549050919050565b60046020528060005260406000206000915090505481565b6000604051905090565b600080fd5b600080fd5b600073ffffffffffffffffffffffffffffffffffffffff82169050919050565b6000610ae682610abb565b9050919050565b610af681610adb565b8114610b0157600080fd5b50565b600081359050610b1381610aed565b92915050565b600060208284031215610b2f57610b2e610ab1565b5b6000610b3d84828501610b04565b91505092915050565b600081519050919050565b600082825260208201905092915050565b60005b83811015610b80578082015181840152602081019050610b65565b60008484015250505050565b6000601f19601f8301169050919050565b6000610ba882610b46565b610bb28185610b51565b9350610bc2818560208601610b62565b610bcb81610b8c565b840191505092915050565b60006020820190508181036000830152610bf08184610b9d565b905092915050565b6000819050919050565b610c0b81610bf8565b8114610c1657600080fd5b50565b600081359050610c2881610c02565b92915050565b6000819050919050565b610c4181610c2e565b8114610c4c57600080fd5b50565b600081359050610c5e81610c38565b92915050565b600080600060608486031215610c7d57610c7c610ab1565b5b6000610c8b86828701610b04565b9350506020610c9c86828701610c19565b9250506040610cad86828701610c4f565b9150509250925092565b60008060408385031215610cce57610ccd610ab1565b5b6000610cdc85828601610b04565b9250506020610ced85828601610c19565b9150509250929050565b600080fd5b600080fd5b7f4e487b7100000000000000000000000000000000000000000000000000000000600052604160045260246000fd5b610d3982610b8c565b810181811067ffffffffffffffff82111715610d5857610d57610d01565b5b80604052505050565b6000610d6b610aa7565b9050610d778282610d30565b919050565b600067ffffffffffffffff821115610d9757610d96610d01565b5b610da082610b8c565b9050602081019050919050565b82818337600083830152505050565b6000610dcf610dca84610d7c565b610d61565b905082815260208101848484011115610deb57610dea610cfc565b5b610df6848285610dad565b509392505050565b600082601f830112610e1357610e12610cf7565b5b8135610e23848260208601610dbc565b91505092915050565b600080600060608486031215610e4557610e44610ab1565b5b6000610e5386828701610b04565b9350506020610e6486828701610c19565b925050604084013567ffffffffffffffff811115610e8557610e84610ab6565b5b610e9186828701610dfe565b9150509250925092565b6000819050919050565b6000610ec0610ebb610eb684610abb565b610e9b565b610abb565b9050919050565b6000610ed282610ea5565b9050919050565b6000610ee482610ec7565b9050919050565b610ef481610ed9565b82525050565b6000602082019050610f0f6000830184610eeb565b92915050565b610f1e81610bf8565b82525050565b6000602082019050610f396000830184610f15565b92915050565b7f4e487b7100000000000000000000000000000000000000000000000000000000600052602260045260246000fd5b60006002820490506001821680610f8657607f821691505b602082108103610f9957610f98610f3f565b5b50919050565b7f496e73756666696369656e7420636172626f6e20616c6c6f77616e6365000000600082015250565b6000610fd5601d83610b51565b9150610fe082610f9f565b602082019050919050565b6000602082019050818103600083015261100481610fc8565b9050919050565b61101481610adb565b82525050565b600060208201905061102f600083018461100b565b92915050565b60008151905061104481610c38565b92915050565b6000602082840312156110605761105f610ab1565b5b600061106e84828501611035565b91505092915050565b7f496e737566666963656e7420636172626f6e20636f696e000000000000000000600082015250565b60006110ad601783610b51565b91506110b882611077565b602082019050919050565b600060208201905081810360008301526110dc816110a0565b9050919050565b7f4e487b7100000000000000000000000000000000000000000000000000000000600052601160045260246000fd5b600061111d82610bf8565b915061112883610bf8565b9250828201905082811215600083121683821260008412151617156111505761114f6110e3565b5b92915050565b600061116182610bf8565b915061116c83610bf8565b9250828203905081811260008412168282136000851215161715611193576111926110e3565b5b92915050565b6111a281610c2e565b82525050565b60006060820190506111bd600083018661100b565b6111ca602083018561100b565b6111d76040830184611199565b949350505050565b60008115159050919050565b6111f4816111df565b81146111ff57600080fd5b50565b600081519050611211816111eb565b92915050565b60006020828403121561122d5761122c610ab1565b5b600061123b84828501611202565b91505092915050565b6000608082019050611259600083018761100b565b611266602083018661100b565b6112736040830185610f15565b6112806060830184611199565b95945050505050565b600060408201905061129e600083018561100b565b6112ab6020830184610f15565b9392505050565b60008190508160005260206000209050919050565b60006020601f8301049050919050565b60008160020a8302905092915050565b6000600883026113177fffffffffffffffffffffffffffffffffffffffffffffffffffffffffffffffff826112d7565b61132186836112d7565b95508019841693508086168417925050509392505050565b600061135461134f61134a84610c2e565b610e9b565b610c2e565b9050919050565b6000819050919050565b61136e83611339565b61138261137a8261135b565b8484546112e7565b825550505050565b600090565b61139761138a565b6113a2818484611365565b505050565b5b818110156113c6576113bb60008261138f565b6001810190506113a8565b5050565b601f82111561140b576113dc816112b2565b6113e5846112c7565b810160208510156113f4578190505b611408611400856112c7565b8301826113a7565b50505b505050565b60008160020a8304905092915050565b600061143160001984600802611410565b1980831691505092915050565b600061144a8383611420565b9150826002028217905092915050565b61146382610b46565b67ffffffffffffffff81111561147c5761147b610d01565b5b6114868254610f6e565b6114918282856113ca565b600060209050601f8311600181146114c457600084156114b2578287015190505b6114bc858261143e565b865550611524565b601f1984166114d2866112b2565b60005b828110156114fa578489015182556001820191506020850194506020810190506114d5565b868310156115175784890151611513601f891682611420565b8355505b6001600288020188555050505b505050505050565b600082825260208201905092915050565b600061154882610b46565b611552818561152c565b9350611562818560208601610b62565b61156b81610b8c565b840191505092915050565b60006020830160008301518482036000860152611593828261153d565b9150508091505092915050565b60006040820190506115b5600083018561100b565b81810360208301526115c78184611576565b9050939250505056fea26469706673582212200130da6cd9ddd012764629e87c294149acaa501bb7aa4a78c3050af1203f841764736f6c63430008150033",
  "immutableReferences": {},
  "source": "// SPDX-License-Identifier: MIT\r\npragma solidity ^0.8.0;\r\n\r\nimport \"@openzeppelin/contracts/token/ERC20/IERC20.sol\";\r\nimport \"@openzeppelin/contracts/token/ERC20/ERC20.sol\";\r\nimport \"@openzeppelin/contracts/utils/Address.sol\";\r\nimport \"@openzeppelin/contracts/token/ERC20/utils/SafeERC20.sol\";\r\n\r\ncontract CarbonCredits {\r\n    using SafeERC20 for IERC20;\r\n    using Address for address;\r\n\r\n    IERC20 public carbonCoin; //  \r\n    address private admin; // \r\n    address private auditor; // \r\n    address private thirdParty; // \r\n    struct CarbonReport {\r\n        string reportText; // \r\n    }\r\n\r\n    mapping(address => int256) public carbonAllowance; // \r\n    mapping(address => CarbonReport) public carbonReports; // \r\n\r\n    // event CarbonAllowanceIssued(address target, int256 amount);\r\n    // event CarbonAllowanceBurned(address target, int256 amount);\r\n    event CarbonAllowanceReset(address _target, int256 _amount);\r\n    event CarbonTransaction(address _from, address _to, int256 _amount, uint256 _price);\r\n    event CarbonReportSubmitted(address account,CarbonReport carbonReport);\r\n    event ExceedRecord(address _account, int256 _amount);\r\n\r\n    constructor(IERC20 _carbonCoin, address _admin, address _auditor, address _thirdParty) {\r\n        carbonCoin = _carbonCoin;\r\n        admin      = _admin;\r\n        auditor    = _auditor;\r\n        thirdParty = _thirdParty;\r\n    }\r\n\r\n    // \r\n    // function issueCarbonAllowance(address target, uint256 amount) public {\r\n    //     require(msg.sender == carbonIssuer, \"Only carbon issuer can issue allowance\");\r\n    //     require(carbonAllowance[target] < carbonAllowance[target] + amount, \"Overflow!\");\r\n    //     carbonAllowance[target] = carbonAllowance[target] + amount;\r\n    //     emit CarbonAllowanceIssued(target,amount);\r\n    // }\r\n\r\n    // \r\n    // function burnCarbonAllowance(address target, uint256 amount) public {\r\n    //     require(msg.sender == carbonIssuer, \"Only carbon issuer can burn allowance\");\r\n    //     carbonAllowance[target] = carbonAllowance[target] - amount;\r\n    //     emit CarbonAllowanceBurned(target, amount);\r\n    // }\r\n\r\n\r\n    // \r\n    function resetAllowance(address _target, int256 _amount) public {\r\n        require(msg.sender == admin);\r\n        carbonAllowance[_target] = _amount;\r\n        emit CarbonAllowanceReset(_target,_amount);\r\n    }\r\n\r\n\r\n    // msg.sender\r\n    function carbonTransaction(address _to, int256 _amount, uint256 _price) public {\r\n        require(carbonAllowance[_to] >= _amount, \"Insufficient carbon allowance\"); // \r\n        require(carbonCoin.balanceOf(msg.sender) >= _price, \"Insufficent carbon coin\"); // \r\n        carbonAllowance[msg.sender] = carbonAllowance[msg.sender] + _amount; // \r\n        carbonAllowance[_to] = carbonAllowance[_to] - _amount; // \r\n        carbonCoin.transferFrom( msg.sender,_to, _price); // \r\n        emit CarbonTransaction(msg.sender,_to,_amount,_price);\r\n    }\r\n\r\n    //  -- \r\n    function submitCarbonReport(address _target,int256 _amount, string memory _report) public{\r\n        require(msg.sender == auditor);\r\n        carbonReports[_target] = CarbonReport(_report);\r\n        carbonAllowance[_target] = carbonAllowance[_target] - _amount; // \r\n        emit CarbonReportSubmitted(_target, CarbonReport(_report));\r\n        \r\n        if(carbonAllowance[_target] < 0){\r\n            emit ExceedRecord(_target,carbonAllowance[_target]); // \r\n        }\r\n    }\r\n\r\n    // \r\n    function allowanceOf(address account) public view returns (int256){\r\n        return carbonAllowance[account];\r\n    }\r\n\r\n    // \r\n    function reportOf(address account) public view returns (string memory){\r\n        return carbonReports[account].reportText;\r\n    }\r\n\r\n}\r\n",
  "sourcePath": "G:\\CNTS\\carbon-neutral-trading-system\\truffle\\contracts\\CarbonCredits.sol",
  "compiler": {
    "name": "solc",
    "version": "0.8.21+commit.d9974bed.Emscripten.clang"
  },
  "schemaVersion": "3.4.16",
  "updatedAt": "2024-04-05T08:28:22.457Z",
  "networkType": "ethereum",
  "devdoc": {
    "kind": "dev",
    "methods": {},
    "version": 1
  },
  "userdoc": {
    "kind": "user",
    "methods": {},
    "version": 1
  }
}