{
  "contractName": "FarmToken",
  "abi": [
    {
      "inputs": [
        {
          "internalType": "address",
          "name": "_token",
          "type": "address"
        }
      ],
      "stateMutability": "nonpayable",
      "type": "constructor"
    },
    {
      "inputs": [
        {
          "internalType": "address",
          "name": "target",
          "type": "address"
        }
      ],
      "name": "AddressEmptyCode",
      "type": "error"
    },
    {
      "inputs": [
        {
          "internalType": "address",
          "name": "account",
          "type": "address"
        }
      ],
      "name": "AddressInsufficientBalance",
      "type": "error"
    },
    {
      "inputs": [
        {
          "internalType": "address",
          "name": "spender",
          "type": "address"
        },
        {
          "internalType": "uint256",
          "name": "allowance",
          "type": "uint256"
        },
        {
          "internalType": "uint256",
          "name": "needed",
          "type": "uint256"
        }
      ],
      "name": "ERC20InsufficientAllowance",
      "type": "error"
    },
    {
      "inputs": [
        {
          "internalType": "address",
          "name": "sender",
          "type": "address"
        },
        {
          "internalType": "uint256",
          "name": "balance",
          "type": "uint256"
        },
        {
          "internalType": "uint256",
          "name": "needed",
          "type": "uint256"
        }
      ],
      "name": "ERC20InsufficientBalance",
      "type": "error"
    },
    {
      "inputs": [
        {
          "internalType": "address",
          "name": "approver",
          "type": "address"
        }
      ],
      "name": "ERC20InvalidApprover",
      "type": "error"
    },
    {
      "inputs": [
        {
          "internalType": "address",
          "name": "receiver",
          "type": "address"
        }
      ],
      "name": "ERC20InvalidReceiver",
      "type": "error"
    },
    {
      "inputs": [
        {
          "internalType": "address",
          "name": "sender",
          "type": "address"
        }
      ],
      "name": "ERC20InvalidSender",
      "type": "error"
    },
    {
      "inputs": [
        {
          "internalType": "address",
          "name": "spender",
          "type": "address"
        }
      ],
      "name": "ERC20InvalidSpender",
      "type": "error"
    },
    {
      "inputs": [],
      "name": "FailedInnerCall",
      "type": "error"
    },
    {
      "inputs": [
        {
          "internalType": "address",
          "name": "token",
          "type": "address"
        }
      ],
      "name": "SafeERC20FailedOperation",
      "type": "error"
    },
    {
      "anonymous": false,
      "inputs": [
        {
          "indexed": true,
          "internalType": "address",
          "name": "owner",
          "type": "address"
        },
        {
          "indexed": true,
          "internalType": "address",
          "name": "spender",
          "type": "address"
        },
        {
          "indexed": false,
          "internalType": "uint256",
          "name": "value",
          "type": "uint256"
        }
      ],
      "name": "Approval",
      "type": "event"
    },
    {
      "anonymous": false,
      "inputs": [
        {
          "indexed": true,
          "internalType": "address",
          "name": "from",
          "type": "address"
        },
        {
          "indexed": true,
          "internalType": "address",
          "name": "to",
          "type": "address"
        },
        {
          "indexed": false,
          "internalType": "uint256",
          "name": "value",
          "type": "uint256"
        }
      ],
      "name": "Transfer",
      "type": "event"
    },
    {
      "inputs": [
        {
          "internalType": "address",
          "name": "owner",
          "type": "address"
        },
        {
          "internalType": "address",
          "name": "spender",
          "type": "address"
        }
      ],
      "name": "allowance",
      "outputs": [
        {
          "internalType": "uint256",
          "name": "",
          "type": "uint256"
        }
      ],
      "stateMutability": "view",
      "type": "function"
    },
    {
      "inputs": [
        {
          "internalType": "address",
          "name": "spender",
          "type": "address"
        },
        {
          "internalType": "uint256",
          "name": "value",
          "type": "uint256"
        }
      ],
      "name": "approve",
      "outputs": [
        {
          "internalType": "bool",
          "name": "",
          "type": "bool"
        }
      ],
      "stateMutability": "nonpayable",
      "type": "function"
    },
    {
      "inputs": [
        {
          "internalType": "address",
          "name": "account",
          "type": "address"
        }
      ],
      "name": "balanceOf",
      "outputs": [
        {
          "internalType": "uint256",
          "name": "",
          "type": "uint256"
        }
      ],
      "stateMutability": "view",
      "type": "function"
    },
    {
      "inputs": [],
      "name": "decimals",
      "outputs": [
        {
          "internalType": "uint8",
          "name": "",
          "type": "uint8"
        }
      ],
      "stateMutability": "view",
      "type": "function"
    },
    {
      "inputs": [],
      "name": "name",
      "outputs": [
        {
          "internalType": "string",
          "name": "",
          "type": "string"
        }
      ],
      "stateMutability": "view",
      "type": "function"
    },
    {
      "inputs": [],
      "name": "symbol",
      "outputs": [
        {
          "internalType": "string",
          "name": "",
          "type": "string"
        }
      ],
      "stateMutability": "view",
      "type": "function"
    },
    {
      "inputs": [],
      "name": "token",
      "outputs": [
        {
          "internalType": "contract IERC20",
          "name": "",
          "type": "address"
        }
      ],
      "stateMutability": "view",
      "type": "function"
    },
    {
      "inputs": [],
      "name": "totalSupply",
      "outputs": [
        {
          "internalType": "uint256",
          "name": "",
          "type": "uint256"
        }
      ],
      "stateMutability": "view",
      "type": "function"
    },
    {
      "inputs": [
        {
          "internalType": "address",
          "name": "to",
          "type": "address"
        },
        {
          "internalType": "uint256",
          "name": "value",
          "type": "uint256"
        }
      ],
      "name": "transfer",
      "outputs": [
        {
          "internalType": "bool",
          "name": "",
          "type": "bool"
        }
      ],
      "stateMutability": "nonpayable",
      "type": "function"
    },
    {
      "inputs": [
        {
          "internalType": "address",
          "name": "from",
          "type": "address"
        },
        {
          "internalType": "address",
          "name": "to",
          "type": "address"
        },
        {
          "internalType": "uint256",
          "name": "value",
          "type": "uint256"
        }
      ],
      "name": "transferFrom",
      "outputs": [
        {
          "internalType": "bool",
          "name": "",
          "type": "bool"
        }
      ],
      "stateMutability": "nonpayable",
      "type": "function"
    },
    {
      "inputs": [],
      "name": "balance",
      "outputs": [
        {
          "internalType": "uint256",
          "name": "",
          "type": "uint256"
        }
      ],
      "stateMutability": "view",
      "type": "function"
    },
    {
      "inputs": [
        {
          "internalType": "uint256",
          "name": "_amount",
          "type": "uint256"
        }
      ],
      "name": "deposit",
      "outputs": [],
      "stateMutability": "nonpayable",
      "type": "function"
    },
    {
      "inputs": [
        {
          "internalType": "uint256",
          "name": "_amount",
          "type": "uint256"
        }
      ],
      "name": "withdraw",
      "outputs": [],
      "stateMutability": "nonpayable",
      "type": "function"
    }
  ],
  "bytecode": "0x60806040523480156200001157600080fd5b5060405162001d3238038062001d3283398181016040528101906200003791906200017b565b6040518060400160405280600981526020017f4661726d546f6b656e00000000000000000000000000000000000000000000008152506040518060400160405280600381526020017f46524d00000000000000000000000000000000000000000000000000000000008152508160039081620000b491906200042d565b508060049081620000c691906200042d565b50505080600560006101000a81548173ffffffffffffffffffffffffffffffffffffffff021916908373ffffffffffffffffffffffffffffffffffffffff1602179055505062000514565b600080fd5b600073ffffffffffffffffffffffffffffffffffffffff82169050919050565b6000620001438262000116565b9050919050565b620001558162000136565b81146200016157600080fd5b50565b60008151905062000175816200014a565b92915050565b60006020828403121562000194576200019362000111565b5b6000620001a48482850162000164565b91505092915050565b600081519050919050565b7f4e487b7100000000000000000000000000000000000000000000000000000000600052604160045260246000fd5b7f4e487b7100000000000000000000000000000000000000000000000000000000600052602260045260246000fd5b600060028204905060018216806200022f57607f821691505b602082108103620002455762000244620001e7565b5b50919050565b60008190508160005260206000209050919050565b60006020601f8301049050919050565b60008160020a8302905092915050565b600060088302620002b27fffffffffffffffffffffffffffffffffffffffffffffffffffffffffffffffff8262000270565b620002be868362000270565b95508019841693508086168417925050509392505050565b6000819050919050565b6000819050919050565b60006200030b62000305620002ff84620002d6565b620002e0565b620002d6565b9050919050565b6000819050919050565b6200032783620002ea565b6200033f620003368262000312565b84845462000280565b825550505050565b600090565b6200035662000347565b620003638184846200031c565b505050565b5b818110156200038b576200037f6000826200034c565b60018101905062000369565b5050565b601f821115620003da57620003a4816200024b565b620003af8462000260565b81016020851015620003bf578190505b620003d7620003ce8562000260565b83018262000368565b50505b505050565b60008160020a8304905092915050565b60006200040260001984600802620003df565b1980831691505092915050565b60006200041d8383620003ef565b9150826002028217905092915050565b6200043882620001ad565b67ffffffffffffffff811115620004545762000453620001b8565b5b62000460825462000216565b6200046d8282856200038f565b600060209050601f831160018114620004a5576000841562000490578287015190505b6200049c85826200040f565b8655506200050c565b601f198416620004b5866200024b565b60005b82811015620004df57848901518255600182019150602085019450602081019050620004b8565b86831015620004ff5784890151620004fb601f891682620003ef565b8355505b6001600288020188555050505b505050505050565b61180e80620005246000396000f3fe608060405234801561001057600080fd5b50600436106100ec576000357c01000000000000000000000000000000000000000000000000000000009004806370a08231116100a9578063b69ef8a811610083578063b69ef8a814610245578063b6b55f2514610263578063dd62ed3e1461027f578063fc0c546a146102af576100ec565b806370a08231146101c757806395d89b41146101f7578063a9059cbb14610215576100ec565b806306fdde03146100f1578063095ea7b31461010f57806318160ddd1461013f57806323b872dd1461015d5780632e1a7d4d1461018d578063313ce567146101a9575b600080fd5b6100f96102cd565b60405161010691906111f6565b60405180910390f35b610129600480360381019061012491906112b1565b61035f565b604051610136919061130c565b60405180910390f35b610147610382565b6040516101549190611336565b60405180910390f35b61017760048036038101906101729190611351565b61038c565b604051610184919061130c565b60405180910390f35b6101a760048036038101906101a291906113a4565b6103bb565b005b6101b1610415565b6040516101be91906113ed565b60405180910390f35b6101e160048036038101906101dc9190611408565b61041e565b6040516101ee9190611336565b60405180910390f35b6101ff610466565b60405161020c91906111f6565b60405180910390f35b61022f600480360381019061022a91906112b1565b6104f8565b60405161023c919061130c565b60405180910390f35b61024d61051b565b60405161025a9190611336565b60405180910390f35b61027d600480360381019061027891906113a4565b6105da565b005b61029960048036038101906102949190611435565b610679565b6040516102a69190611336565b60405180910390f35b6102b7610700565b6040516102c491906114d4565b60405180910390f35b6060600380546102dc9061151e565b80601f01602080910402602001604051908101604052809291908181526020018280546103089061151e565b80156103555780601f1061032a57610100808354040283529160200191610355565b820191906000526020600020905b81548152906001019060200180831161033857829003601f168201915b5050505050905090565b60008061036a610726565b905061037781858561072e565b600191505092915050565b6000600254905090565b600080610397610726565b90506103a4858285610740565b6103af8585856107d4565b60019150509392505050565b6103c533826108c8565b6104123382600560009054906101000a900473ffffffffffffffffffffffffffffffffffffffff1673ffffffffffffffffffffffffffffffffffffffff1661094a9092919063ffffffff16565b50565b60006012905090565b60008060008373ffffffffffffffffffffffffffffffffffffffff1673ffffffffffffffffffffffffffffffffffffffff168152602001908152602001600020549050919050565b6060600480546104759061151e565b80601f01602080910402602001604051908101604052809291908181526020018280546104a19061151e565b80156104ee5780601f106104c3576101008083540402835291602001916104ee565b820191906000526020600020905b8154815290600101906020018083116104d157829003601f168201915b5050505050905090565b600080610503610726565b90506105108185856107d4565b600191505092915050565b6000600560009054906101000a900473ffffffffffffffffffffffffffffffffffffffff1673ffffffffffffffffffffffffffffffffffffffff166370a08231306040518263ffffffff167c0100000000000000000000000000000000000000000000000000000000028152600401610594919061155e565b602060405180830381865afa1580156105b1573d6000803e3d6000fd5b505050506040513d601f19601f820116820180604052508101906105d5919061158e565b905090565b6000811161061d576040517f08c379a000000000000000000000000000000000000000000000000000000000815260040161061490611607565b60405180910390fd5b61066c333083600560009054906101000a900473ffffffffffffffffffffffffffffffffffffffff1673ffffffffffffffffffffffffffffffffffffffff166109e5909392919063ffffffff16565b6106763382610a83565b50565b6000600160008473ffffffffffffffffffffffffffffffffffffffff1673ffffffffffffffffffffffffffffffffffffffff16815260200190815260200160002060008373ffffffffffffffffffffffffffffffffffffffff1673ffffffffffffffffffffffffffffffffffffffff16815260200190815260200160002054905092915050565b600560009054906101000a900473ffffffffffffffffffffffffffffffffffffffff1681565b600033905090565b61073b8383836001610b05565b505050565b600061074c8484610679565b90507fffffffffffffffffffffffffffffffffffffffffffffffffffffffffffffffff81146107ce57818110156107be578281836040517ffb8f41b20000000000000000000000000000000000000000000000000000000081526004016107b593929190611627565b60405180910390fd5b6107cd84848484036000610b05565b5b50505050565b600073ffffffffffffffffffffffffffffffffffffffff168373ffffffffffffffffffffffffffffffffffffffff16036108465760006040517f96c6fd1e00000000000000000000000000000000000000000000000000000000815260040161083d919061155e565b60405180910390fd5b600073ffffffffffffffffffffffffffffffffffffffff168273ffffffffffffffffffffffffffffffffffffffff16036108b85760006040517fec442f050000000000000000000000000000000000000000000000000000000081526004016108af919061155e565b60405180910390fd5b6108c3838383610cdc565b505050565b600073ffffffffffffffffffffffffffffffffffffffff168273ffffffffffffffffffffffffffffffffffffffff160361093a5760006040517f96c6fd1e000000000000000000000000000000000000000000000000000000008152600401610931919061155e565b60405180910390fd5b61094682600083610cdc565b5050565b6109e0838473ffffffffffffffffffffffffffffffffffffffff1663a9059cbb858560405160240161097d92919061165e565b60405160208183030381529060405291507c0100000000000000000000000000000000000000000000000000000000026020820180517bffffffffffffffffffffffffffffffffffffffffffffffffffffffff8381831617835250505050610f01565b505050565b610a7d848573ffffffffffffffffffffffffffffffffffffffff166323b872dd868686604051602401610a1a93929190611687565b60405160208183030381529060405291507c0100000000000000000000000000000000000000000000000000000000026020820180517bffffffffffffffffffffffffffffffffffffffffffffffffffffffff8381831617835250505050610f01565b50505050565b600073ffffffffffffffffffffffffffffffffffffffff168273ffffffffffffffffffffffffffffffffffffffff1603610af55760006040517fec442f05000000000000000000000000000000000000000000000000000000008152600401610aec919061155e565b60405180910390fd5b610b0160008383610cdc565b5050565b600073ffffffffffffffffffffffffffffffffffffffff168473ffffffffffffffffffffffffffffffffffffffff1603610b775760006040517fe602df05000000000000000000000000000000000000000000000000000000008152600401610b6e919061155e565b60405180910390fd5b600073ffffffffffffffffffffffffffffffffffffffff168373ffffffffffffffffffffffffffffffffffffffff1603610be95760006040517f94280d62000000000000000000000000000000000000000000000000000000008152600401610be0919061155e565b60405180910390fd5b81600160008673ffffffffffffffffffffffffffffffffffffffff1673ffffffffffffffffffffffffffffffffffffffff16815260200190815260200160002060008573ffffffffffffffffffffffffffffffffffffffff1673ffffffffffffffffffffffffffffffffffffffff168152602001908152602001600020819055508015610cd6578273ffffffffffffffffffffffffffffffffffffffff168473ffffffffffffffffffffffffffffffffffffffff167f8c5be1e5ebec7d5bd14f71427d1e84f3dd0314c0f7b2291e5b200ac8c7c3b92584604051610ccd9190611336565b60405180910390a35b50505050565b600073ffffffffffffffffffffffffffffffffffffffff168373ffffffffffffffffffffffffffffffffffffffff1603610d2e578060026000828254610d2291906116ed565b92505081905550610e01565b60008060008573ffffffffffffffffffffffffffffffffffffffff1673ffffffffffffffffffffffffffffffffffffffff16815260200190815260200160002054905081811015610dba578381836040517fe450d38c000000000000000000000000000000000000000000000000000000008152600401610db193929190611627565b60405180910390fd5b8181036000808673ffffffffffffffffffffffffffffffffffffffff1673ffffffffffffffffffffffffffffffffffffffff16815260200190815260200160002081905550505b600073ffffffffffffffffffffffffffffffffffffffff168273ffffffffffffffffffffffffffffffffffffffff1603610e4a5780600260008282540392505081905550610e97565b806000808473ffffffffffffffffffffffffffffffffffffffff1673ffffffffffffffffffffffffffffffffffffffff168152602001908152602001600020600082825401925050819055505b8173ffffffffffffffffffffffffffffffffffffffff168373ffffffffffffffffffffffffffffffffffffffff167fddf252ad1be2c89b69c2b068fc378daa952ba7f163c4a11628f55a4df523b3ef83604051610ef49190611336565b60405180910390a3505050565b6000610f2c828473ffffffffffffffffffffffffffffffffffffffff16610f9890919063ffffffff16565b90506000815114158015610f51575080806020019051810190610f4f919061174d565b155b15610f9357826040517f5274afe7000000000000000000000000000000000000000000000000000000008152600401610f8a919061155e565b60405180910390fd5b505050565b6060610fa683836000610fae565b905092915050565b6060813073ffffffffffffffffffffffffffffffffffffffff1631101561100c57306040517fcd786059000000000000000000000000000000000000000000000000000000008152600401611003919061155e565b60405180910390fd5b6000808573ffffffffffffffffffffffffffffffffffffffff16848660405161103591906117c1565b60006040518083038185875af1925050503d8060008114611072576040519150601f19603f3d011682016040523d82523d6000602084013e611077565b606091505b5091509150611087868383611092565b925050509392505050565b6060826110a7576110a282611121565b611119565b600082511480156110cf575060008473ffffffffffffffffffffffffffffffffffffffff163b145b1561111157836040517f9996b315000000000000000000000000000000000000000000000000000000008152600401611108919061155e565b60405180910390fd5b81905061111a565b5b9392505050565b6000815111156111345780518082602001fd5b6040517f1425ea4200000000000000000000000000000000000000000000000000000000815260040160405180910390fd5b600081519050919050565b600082825260208201905092915050565b60005b838110156111a0578082015181840152602081019050611185565b60008484015250505050565b6000601f19601f8301169050919050565b60006111c882611166565b6111d28185611171565b93506111e2818560208601611182565b6111eb816111ac565b840191505092915050565b6000602082019050818103600083015261121081846111bd565b905092915050565b600080fd5b600073ffffffffffffffffffffffffffffffffffffffff82169050919050565b60006112488261121d565b9050919050565b6112588161123d565b811461126357600080fd5b50565b6000813590506112758161124f565b92915050565b6000819050919050565b61128e8161127b565b811461129957600080fd5b50565b6000813590506112ab81611285565b92915050565b600080604083850312156112c8576112c7611218565b5b60006112d685828601611266565b92505060206112e78582860161129c565b9150509250929050565b60008115159050919050565b611306816112f1565b82525050565b600060208201905061132160008301846112fd565b92915050565b6113308161127b565b82525050565b600060208201905061134b6000830184611327565b92915050565b60008060006060848603121561136a57611369611218565b5b600061137886828701611266565b935050602061138986828701611266565b925050604061139a8682870161129c565b9150509250925092565b6000602082840312156113ba576113b9611218565b5b60006113c88482850161129c565b91505092915050565b600060ff82169050919050565b6113e7816113d1565b82525050565b600060208201905061140260008301846113de565b92915050565b60006020828403121561141e5761141d611218565b5b600061142c84828501611266565b91505092915050565b6000806040838503121561144c5761144b611218565b5b600061145a85828601611266565b925050602061146b85828601611266565b9150509250929050565b6000819050919050565b600061149a6114956114908461121d565b611475565b61121d565b9050919050565b60006114ac8261147f565b9050919050565b60006114be826114a1565b9050919050565b6114ce816114b3565b82525050565b60006020820190506114e960008301846114c5565b92915050565b7f4e487b7100000000000000000000000000000000000000000000000000000000600052602260045260246000fd5b6000600282049050600182168061153657607f821691505b602082108103611549576115486114ef565b5b50919050565b6115588161123d565b82525050565b6000602082019050611573600083018461154f565b92915050565b60008151905061158881611285565b92915050565b6000602082840312156115a4576115a3611218565b5b60006115b284828501611579565b91505092915050565b7f616d6f756e742063616e6e6f7420626520300000000000000000000000000000600082015250565b60006115f1601283611171565b91506115fc826115bb565b602082019050919050565b60006020820190508181036000830152611620816115e4565b9050919050565b600060608201905061163c600083018661154f565b6116496020830185611327565b6116566040830184611327565b949350505050565b6000604082019050611673600083018561154f565b6116806020830184611327565b9392505050565b600060608201905061169c600083018661154f565b6116a9602083018561154f565b6116b66040830184611327565b949350505050565b7f4e487b7100000000000000000000000000000000000000000000000000000000600052601160045260246000fd5b60006116f88261127b565b91506117038361127b565b925082820190508082111561171b5761171a6116be565b5b92915050565b61172a816112f1565b811461173557600080fd5b50565b60008151905061174781611721565b92915050565b60006020828403121561176357611762611218565b5b600061177184828501611738565b91505092915050565b600081519050919050565b600081905092915050565b600061179b8261177a565b6117a58185611785565b93506117b5818560208601611182565b80840191505092915050565b60006117cd8284611790565b91508190509291505056fea2646970667358221220f017301bec0a4f0d65878bd0eba6bb45521b4e2526f7399a9db21d5b3a8a62f964736f6c63430008150033",
  "immutableReferences": {},
  "source": "pragma solidity ^0.8.0;\r\n\r\nimport \"@openzeppelin/contracts/token/ERC20/IERC20.sol\";\r\nimport \"@openzeppelin/contracts/utils/Address.sol\";\r\nimport \"@openzeppelin/contracts/token/ERC20/utils/SafeERC20.sol\";\r\nimport \"@openzeppelin/contracts/token/ERC20/ERC20.sol\";\r\n\r\ncontract FarmToken is ERC20 {\r\n    using Address for address;\r\n    // using SafeMath for uint256; // As of Solidity v0.8.0, mathematical operations can be done safely without the need for SafeMath\r\n    using SafeERC20 for IERC20;\r\n\r\n    IERC20 public token; // MyToken\r\n\r\n    constructor(address _token)\r\n        public\r\n        ERC20(\"FarmToken\", \"FRM\")\r\n    {\r\n        token = IERC20(_token);\r\n    }\r\n\r\n    function balance() public view returns (uint256) {\r\n        return token.balanceOf(address(this)); // MyToken\r\n    }\r\n\r\n    function deposit(uint256 _amount) public {\r\n        // Amount must be greater than zero  0\r\n        require(_amount > 0, \"amount cannot be 0\");\r\n\r\n        // Transfer MyToken to smart contract \r\n        token.safeTransferFrom(msg.sender, address(this), _amount);\r\n\r\n        // Mint FarmToken to msg sender FarmToken\r\n        _mint(msg.sender, _amount);\r\n    }\r\n\r\n    function withdraw(uint256 _amount) public {\r\n        // Burn FarmTokens from msg sender \r\n        _burn(msg.sender, _amount);\r\n\r\n        // Transfer MyTokens from this smart contract to msg sender \r\n        token.safeTransfer(msg.sender, _amount);\r\n    }\r\n\r\n\r\n\r\n}",
  "sourcePath": "G:\\CNTS\\carbon-neutral-trading-system\\truffle\\contracts\\FarmToken.sol",
  "compiler": {
    "name": "solc",
    "version": "0.8.21+commit.d9974bed.Emscripten.clang"
  },
  "schemaVersion": "3.4.16",
  "updatedAt": "2024-04-10T14:18:03.407Z",
  "devdoc": {
    "errors": {
      "AddressEmptyCode(address)": [
        {
          "details": "There's no code at `target` (it is not a contract)."
        }
      ],
      "AddressInsufficientBalance(address)": [
        {
          "details": "The ETH balance of the account is not enough to perform the operation."
        }
      ],
      "ERC20InsufficientAllowance(address,uint256,uint256)": [
        {
          "details": "Indicates a failure with the `spender`s `allowance`. Used in transfers.",
          "params": {
            "allowance": "Amount of tokens a `spender` is allowed to operate with.",
            "needed": "Minimum amount required to perform a transfer.",
            "spender": "Address that may be allowed to operate on tokens without being their owner."
          }
        }
      ],
      "ERC20InsufficientBalance(address,uint256,uint256)": [
        {
          "details": "Indicates an error related to the current `balance` of a `sender`. Used in transfers.",
          "params": {
            "balance": "Current balance for the interacting account.",
            "needed": "Minimum amount required to perform a transfer.",
            "sender": "Address whose tokens are being transferred."
          }
        }
      ],
      "ERC20InvalidApprover(address)": [
        {
          "details": "Indicates a failure with the `approver` of a token to be approved. Used in approvals.",
          "params": {
            "approver": "Address initiating an approval operation."
          }
        }
      ],
      "ERC20InvalidReceiver(address)": [
        {
          "details": "Indicates a failure with the token `receiver`. Used in transfers.",
          "params": {
            "receiver": "Address to which tokens are being transferred."
          }
        }
      ],
      "ERC20InvalidSender(address)": [
        {
          "details": "Indicates a failure with the token `sender`. Used in transfers.",
          "params": {
            "sender": "Address whose tokens are being transferred."
          }
        }
      ],
      "ERC20InvalidSpender(address)": [
        {
          "details": "Indicates a failure with the `spender` to be approved. Used in approvals.",
          "params": {
            "spender": "Address that may be allowed to operate on tokens without being their owner."
          }
        }
      ],
      "FailedInnerCall()": [
        {
          "details": "A call to an address target failed. The target may have reverted."
        }
      ],
      "SafeERC20FailedOperation(address)": [
        {
          "details": "An operation with an ERC20 token failed."
        }
      ]
    },
    "events": {
      "Approval(address,address,uint256)": {
        "details": "Emitted when the allowance of a `spender` for an `owner` is set by a call to {approve}. `value` is the new allowance."
      },
      "Transfer(address,address,uint256)": {
        "details": "Emitted when `value` tokens are moved from one account (`from`) to another (`to`). Note that `value` may be zero."
      }
    },
    "kind": "dev",
    "methods": {
      "allowance(address,address)": {
        "details": "See {IERC20-allowance}."
      },
      "approve(address,uint256)": {
        "details": "See {IERC20-approve}. NOTE: If `value` is the maximum `uint256`, the allowance is not updated on `transferFrom`. This is semantically equivalent to an infinite approval. Requirements: - `spender` cannot be the zero address."
      },
      "balanceOf(address)": {
        "details": "See {IERC20-balanceOf}."
      },
      "decimals()": {
        "details": "Returns the number of decimals used to get its user representation. For example, if `decimals` equals `2`, a balance of `505` tokens should be displayed to a user as `5.05` (`505 / 10 ** 2`). Tokens usually opt for a value of 18, imitating the relationship between Ether and Wei. This is the default value returned by this function, unless it's overridden. NOTE: This information is only used for _display_ purposes: it in no way affects any of the arithmetic of the contract, including {IERC20-balanceOf} and {IERC20-transfer}."
      },
      "name()": {
        "details": "Returns the name of the token."
      },
      "symbol()": {
        "details": "Returns the symbol of the token, usually a shorter version of the name."
      },
      "totalSupply()": {
        "details": "See {IERC20-totalSupply}."
      },
      "transfer(address,uint256)": {
        "details": "See {IERC20-transfer}. Requirements: - `to` cannot be the zero address. - the caller must have a balance of at least `value`."
      },
      "transferFrom(address,address,uint256)": {
        "details": "See {IERC20-transferFrom}. Emits an {Approval} event indicating the updated allowance. This is not required by the EIP. See the note at the beginning of {ERC20}. NOTE: Does not update the allowance if the current allowance is the maximum `uint256`. Requirements: - `from` and `to` cannot be the zero address. - `from` must have a balance of at least `value`. - the caller must have allowance for ``from``'s tokens of at least `value`."
      }
    },
    "version": 1
  },
  "userdoc": {
    "kind": "user",
    "methods": {},
    "version": 1
  }
}